:020000040000FA
:10000000D8770010C1010000C5010000C701000041
:10001000C9010000CB010000CD010000000000007C
:10002000000000000000000000000000CF01000000
:10003000D101000000000000D3010000D501000044
:10004000D7010000D30900006B0B0000D7010000AE
:10005000D7010000C137000083380000D70100003D
:10006000D70100006958000001350000D7010000E9
:10007000D7010000D7010000D7010000D701000020
:10008000D7010000D7010000D7010000D701000010
:10009000D7010000D701000085250000D70100002E
:1000A000D701000037100000D7010000D701000081
:1000B000D7010000D7010000D7010000D7010000E0
:1000C000D701000000F002F800F06AF80AA090E8FA
:1000D000000C82448344AAF10107DA4501D100F003
:1000E0005FF8AFF2090EBAE80F0013F0010F18BF66
:1000F000FB1A43F001031847543B0100743B010015
:100100000A444FF0000C10F8013B13F0070408BF3D
:1001100010F8014B1D1108BF10F8015B641E05D0DB
:1001200010F8016B641E01F8016BF9D113F0080F90
:100130001EBF10F8014BAD1C0C1B09D16D1E58BF22
:1001400001F801CBFAD505E014F8016B01F8016B59
:100150006D1EF9D59142D6D37047000000230024CC
:1001600000250026103A28BF78C1FBD8520728BFC7
:1001700030C148BF0B607047662900F0BD8064291C
:1001800010F03C81002070471FB510F049FD0400BD
:100190000020002112F0FAF8E0601FBD10B510BD7C
:1001A00010F042FE1146FFF7EFFF01F028F910F0C2
:1001B00060FE03B4FFF7F2FF03BC10F0A3FE0000E3
:1001C00008480047FEE7FEE7FEE7FEE7FEE7FEE73A
:1001D000FEE7FEE7FEE7FEE703480449044A054B55
:1001E00070470000C5000000D8660010D8770010E6
:1001F000D8670010D867001000213B48006820F045
:100200006040394A106038494031086840F4005075
:1002100008601046C06D40F40050D065324920316E
:10022000086840F01000086000BF086840F0020055
:100230000860C86940F00200C8611146086840F0D3
:1002400010000860C86940F01000C86126494031BC
:10025000086840F48070086000BF086840F08000C3
:10026000086021492031086840F40030086000BF70
:10027000086840F480300860012070471A48006A1E
:1002800040F01000184908620846C06B40F01000AA
:10029000C86370471548007848B9012013490870B1
:1002A0001148C06B40F010000F49C86308E00020FF
:1002B0000E4908700C48806B40F010000A498863B2
:1002C00070470948406900F0006030B10648C069D5
:1002D00040F000600449C86105E00348806940F0CF
:1002E000006001498861704700C00920E0010010EA
:1002F000704770477047704710F03DBBFFFFFFFF2E
:1003000020207849086000BF7648006800F040006F
:100310000028F9D0032073499C39086001207249F4
:10032000C1F80C010F207049843108600120091FB9
:100330000860AA206C498C31086055206A49C1F8D0
:100340008C0000BF68488830006800F0806000289A
:10035000F8D00320644980310860AA206249C1F8BE
:100360008C00552060498C31086003205E49A4311F
:1003700008600120091F0860AA205B49AC310860B1
:100380005520086003205849A0310860AA2056492A
:10039000AC3108605520086054485349C4310860A6
:1003A00000205149C1F8C8014F4888300068C0F3A7
:1003B0000160032860D14B489438006800F00300C6
:1003C00030B1012820D0022839D0032853D100E0D1
:1003D00000BF454888300068C0F30E00401C410053
:1003E0004148D0F88800C0F30740401CB1FBF0F052
:1003F0003F4948433B499C390968C9B2491CB0FB95
:10040000F1F03C49086036E0374888300068C0F3B6
:100410000E00401C41003448D0F88800C0F307406B
:10042000401CB1FBF0F0344948432E499C3909681F
:10043000C9B2491CB0FBF1F02E4908601BE02A4804
:1004400088300068C0F30E00401C41002648D0F8F8
:100450008800C0F30740401CB1FBF0F04FF4FA41B4
:10046000484320499C390968C9B2491CB0FBF1F0E6
:100470002049086000BF30E01A489438006800F056
:10048000030030B1012810D0022819D0032823D14D
:1004900000E000BF13489C380068C0B2401C1449FB
:1004A000B1FBF0F01349086016E00E489C38006874
:1004B000C0B2401C1049B1FBF0F00E4908600BE0DF
:1004C00008489C380068C0B2401C4FF4FA41B1FBA8
:1004D000F0F00849086000BF00BF43F23A0002494B
:1004E00008607047A0C10F4000C00F40DE8728049D
:1004F00000093D0000000010001BB700002000BFF5
:1005000009E0DF49095CDF4A52F82110DE4A42F86F
:100510002010411CC8B20828F3DB70472DE9F047D2
:100520000024DA48006841F28831884202D908463E
:10053000D6490860D548006812F03CFF0446D4490B
:10054000204612F0EDFD81464FF0894112F07AFF0E
:100550008046D04912F076FF0746CF4912F0E0FD01
:1005600006464FF0804112F0DBFD054612F0EAFE30
:10057000CA4908600846006812F0D8F90546C84A1A
:10058000C84B12F023FA074612F08CF9C3490860F1
:1005900008460068052803D908460068C01E0860A0
:1005A000BDE8F08710B5C0480078401CBE4908700F
:1005B000084600783C2816DD00200870BB484068DB
:1005C000401CBA494860084641680161B848007853
:1005D000401CB749087008460078022803D1002063
:1005E000087004F077FC10BD10B5B24800780128FF
:1005F00004D104F0B0FE0020AE490870AD48007888
:10060000022804D10020AB49087004F0A4FEA948D8
:100610000078042802D10020A649087010BD10B54A
:1006200000BF00BF0020984A52F8202040F6B8339F
:100630005A43120BA4235A435223B2FBF3F29E4BAC
:1006400043F820201A4652F820204FF47A735A4378
:10065000DC23B2FBF3F2994B43F8202001208A4AB5
:1006600052F8202040F6B8335A43120B73235A43F2
:100670002123B2FBF3F2904B43F820201A4652F8A4
:1006800020208E4B43F8202002207F4A52F8202061
:1006900040F6B8335A43120B73235A432123B2FB5B
:1006A000F3F2854B43F820201A4652F82020834B62
:1006B00043F8202003204FF47A71734A52F8202027
:1006C00040F6B8335A43120BA4235A435223B2FBC9
:1006D000F3F2794B43F820201A4652F820204A437F
:1006E00053F8203041F29414E31AB2FBF3F2734B47
:1006F00043F820200420644A52F8202040F6B83302
:100700005A43120B73235A432123B2FBF3F26A4B71
:1007100043F820201A4652F82020684B43F8202046
:10072000052000BF584A52F8202040F6B8335A43FB
:10073000120BA4235A435223B2FBF3F25E4B43F84D
:1007400020201A4652F820204A4353F82030E31A5A
:10075000B2FBF3F2594B43F8202010BD10B5002432
:100760005748007888B157480068554909780844C7
:1007700054490860FFF78EFD00F0B2F9FFF7BEFEA6
:10078000FFF74DFF00204E4908704F48007830B108
:1007900000204D49087001F0CDFA03F017FC002449
:1007A00027E004EB4400494901EB8000007A58B18E
:1007B00004EB440001EB8000007A401E04EB44018E
:1007C000424A02EB8101087204EB4400404901EB0C
:1007D0008000007A58B104EB440001EB8000007AFD
:1007E000401E04EB44013A4A02EB81010872601C8E
:1007F000C4B2192CD5DB3748007840B10020354908
:1008000008703548C06B40F480003349C8633348F2
:10081000007878B132480068401C314908600020F7
:100820002E4908702C48806B40F480002A49886368
:10083000FFF7DAFE2B48007808B101F0A6FB2A4842
:100840000068012806D10020274908602748006871
:1008500001F005FC26480068012806D10020244943
:10086000086007F0AAFE234908702348008818B9D9
:1008700022480088012802DD21480068804710BD19
:100880001100001004180010840A00102400001049
:1008900000409C450000A04000004040280000109F
:1008A000295C8FC2F528F03F2D0000109C09001034
:1008B0002C00001010000010C40A0010040B0010DF
:1008C000450000100400001046000010981E0010A3
:1008D000C41F00104F00001000C009204E0000107F
:1008E0000C00001044000010640100106C010010A6
:1008F00030020010A4030010980800109A0800109D
:1009000094080010C0B902224FF040235A60002220
:10091000DA6042F227324A439A61FF221A600422C7
:100920005A6101225A6000BF4FF04022526802F023
:100930000102002AF8D117E0012815D10222F14B5B
:100940005A600022DA6042F227324A439A61FF225B
:100950001A6004225A6101225A6000BFE94A5268B3
:1009600002F00102002AF9D1704720B900214FF0AE
:100970004022516002E00021E24A51607047014686
:1009800031B94FF04022506840F00200506004E05E
:10099000DC4A506840F002005060704710B50220F9
:1009A0004FF04021486045F6BF5088610320486100
:1009B000012000F09CF910BD10B50220D14948601B
:1009C00040F65F10886103204861022000F08FF933
:1009D00010BD10B501204FF040210860CA480078D2
:1009E000401CC9490870C9480068401CC7490860D4
:1009F000C7480068401CC6490860C6480068401CDB
:100A0000C449086008460068B0F5FA7F02D10120A9
:100A1000C1490870BF480068B0F57A7F05D301204E
:100A2000BE4908700020BB490860BD480068401CF2
:100A3000BB490860084600680A280AD30120B94962
:100A40000870B9480068401CB74908600020B449E4
:100A50000860B6480068401CB44908600846006851
:100A6000400828B9B248007840F00100B049087049
:100A7000AE480068AF490988884202D30020AB49DC
:100A80000860AD48006850B1AB480068401EAA49F4
:100A9000086008460068012801D1A8490860A848F4
:100AA000006850B1A6480068401EA5490860084685
:100AB0000068012801D1A3490860A3480088401CB0
:100AC000A149088008460088642804DB00200880CB
:100AD00001209E49088003F0B1FA03F0F2F910BD3D
:100AE000002000BF0CE09A4951F8301031B198490C
:100AF00051F83010491E964A42F83010411CC8B2D5
:100B00006428F0DB002022E000EB4001914A52F81B
:100B1000211049B100EB400152F82110491E00EBB1
:100B200040028C4B43F8221000EB4001894A02EB53
:100B30008101097A49B100EB400102EB810149686A
:100B400000EB4002834B43F82210411CC8B20A2834
:100B5000DADB704710B5062806DA7F4B19540123FB
:100B60007E4C23547E4B1A5410BDF0B5002000215A
:100B7000002600220023002400250127DFF884C17D
:100B8000CCF80070774F3F687F1CDFF8D8C1CCF8F5
:100B90000070754F3F687F1CDFF8CCC1CCF8007047
:100BA00072484769C7F3C041714F3F78B94208D0D6
:100BB000704F3F687F1CDFF8BCC1CCF800706C4FF1
:100BC00039706A484769C7F300226B4F3F78BA42D1
:100BD00008D06A4F3F687F1CDFF8A0C1CCF80070D6
:100BE000654F3A7061484769C7F34023644F3F78C7
:100BF000BB4208D0634F3F687F1CDFF888C1CCF848
:100C000000705F4F3B7059484769C7F3C0345E4F6F
:100C10003F78BC4208D05D4F3F687F1CDFF86CC155
:100C2000CCF80070584F3C7050484769C7F3803586
:100C3000574F3F78BD4208D0564F3F687F1CDFF8C2
:100C400054C1CCF80070524F3D70464F3F6842F29D
:100C5000107C67453CD90027DFF808C1CCF800704C
:100C6000444F3F687F08DFF830C1CCF80070434F35
:100C70003F687F08DFF824C1CCF80070414F3F681F
:100C80007F08DFF81CC1CCF80070404F3F687F0838
:100C9000DFF810C1CCF800703E4F3F687F08DFF8E6
:100CA00008C1CCF800700027DFF8C8C0CCF800708D
:100CB000DFF8C8C0CCF80070DFF8C8C0CCF800700E
:100CC000DFF8C8C0CCF80070DFF8C8C0CCF80070FE
:100CD000F0BD10B5FFF762FEFFF76EFE012010BDFC
:100CE00001214FF040225160064A5160704700F0E8
:100CF0001F02012191404209920002F1E022C2F854
:100D00000011704700800040450000103C000010BA
:100D1000B0030010300000104F0000104E00001013
:100D200034000010460000100800001040000010C1
:100D3000440000104800001028020010300200108B
:100D40002C0200103402001050000010980800100F
:100D5000001B0010201E0010620000106800001030
:100D60005C000010540000105800001020C0092042
:100D70006E0000104C0200106F00001060020010A6
:100D80007000001064020010710000106802001072
:100D9000720000106C020010480200105002001097
:100DA00054020010580200105C02001070B50025BB
:100DB000F648416A002000F029FC0546FF2D03D1CA
:100DC0000420F249486070BD05EB4500F04901EB95
:100DD000C004EE48006A2060241DEC48406A206090
:100DE000241DEA48806A2060241DE848C06A20600B
:100DF000241DE84850F82500206005EB450001EB74
:100E0000C0004069401C05EB4501E14A02EBC1010D
:100E100048610120E04908600420DC49486000BFC7
:100E2000D1E770B50025DD48416A012000F005FCDE
:100E30000546FF2D03D10420D849486070BD05EB5D
:100E40004500D74901EBC004D448006A2060241D46
:100E5000D248406A2060241DD048806A2060241D4A
:100E6000CE48C06A2060241DCE4850F8250020607E
:100E70000120CD4908600420C849486000BFDDE773
:100E800010B504460020C8490860C3490860C74837
:100E9000006840F40050C549C439C1F8C400C448D2
:100EA000006820F00F00C24908600846006840F062
:100EB000050008600120B5490860002008618860CD
:100EC000022C00D90124FD20B049086104F0030080
:100ED000B84951F82000AD49486100200860192048
:100EE00000F04BFA0320B4490860012010BD10B592
:100EF000A6488068000CB1490860A4488068B049E1
:100F00000860A248C068AF490860AD48007800F0AA
:100F1000C00038B9A948006820B90846007800F038
:100F2000F40050B10020A5490860A6490860A64910
:100F30000879FFF7A5FF012010BD0020FCE710B5E0
:100F4000FFF7D5FF00B110BD9048806800F00100A8
:100F500008B1FFF72BFF00BFF5E710B504460020EE
:100F6000914908609148006840F480408F49C43935
:100F7000C1F8C4008E48006820F470608C49086095
:100F80000846006840F4206008600120834908603A
:100F9000002008618860022C00D90124FD207F49CF
:100FA000086104F00300834951F820007B4948613F
:100FB00000200860192000F0E0F901208349087042
:100FC00003207D490860012010BD10B5734880687A
:100FD000000C7F490860714880687E4908606F484E
:100FE000C0687D4908607B48007800F0C00038B9CF
:100FF0007748006820B90846007800F0F40050B146
:10100000002073490860744908606F494879FFF708
:10101000A4FF012010BD0020FCE710B5FFF7D5FFAD
:1010200000B110BD5D48806800F0010008B1FFF715
:10103000F8FE00BFF5E710B56848406868490860E9
:101040000846006800F4807038B166480068401CAB
:1010500064490860FFF7AAFE10BD4C48806800F0A4
:10106000C00020B94948C06800F0FD0018B15649D9
:101070000879FFF705FF4548806800F0400020B17F
:1010800042488068000C4D4908605048007800B91B
:10109000E2E75348006800F4007038B15248006835
:1010A000401C51490860FFF7BCFED5E73B4880680B
:1010B00000F0C00020B93948C06800F0FD0018B148
:1010C00041490879FFF749FF3448806800F0400043
:1010D00020B132488068000C3D49086000BFBBE782
:1010E00030B50021344C616000200EE04FF0807478
:1010F00044EA4072441C4FF4807545EA443342EAA6
:1011000003043A4D4C51091D801C0428EED32A4C8F
:10111000A16000200EE04FF0007444EA4072441CCD
:101120004FF4007545EA443342EA03042F4D4C5115
:10113000091D801C0428EED31F4CE160002007E04D
:101140004FF4801444EA4072284C0A51091D401C97
:101150000428F5D3184C2161002007E04FF4001457
:1011600044EA4072214C0A51091D401C0428F5D361
:10117000114C616130BD10B5044634B1012C37D03B
:10118000022C46D0042C50D147E045E000400440FA
:10119000C40F0010441600106401001000800440C9
:1011A000C41200104417001068010010C4C00F40A2
:1011B00000C002407400001000C003409000001006
:1011C0009C000010A00000101C22001099000010CC
:1011D00094000010A4000010A800001000000440BB
:1011E00080000010880000108C0000100080034078
:1011F000674804600120674908606749086000206B
:10120000644908616449086162498860624988608C
:101210000CE05F48046009E000BF01205C49086001
:10122000FFF75EFF5A48046000E000BF00BF10BD3A
:1012300010B501464CF2503300BF5748806800F0AB
:10124000200018B1181EA3F10103F6D10BB900203C
:1012500010BD5148C26902F0040088B14F4C0868C3
:1012600020404D4C2063486860638868A063C8686C
:10127000E0632046406840F0210060600120E7E71D
:1012800002F4806088B1454C08682040424C2064DC
:10129000486860648868A064C868E0642046406864
:1012A00040F0410060600120D2E702F4802088B164
:1012B0003A4C08682040384C20654868606588686A
:1012C000A065C868E0652046406840F08100606025
:1012D0000120BDE70020BBE710B501464CF25033BA
:1012E00000BF2C48806800F0200018B1181EA3F140
:1012F0000103F6D12748C26902F0040088B1274CE7
:1013000008682040234C2063486860638868A063B5
:10131000C868E0632046406840F02100606001201A
:1013200010BD02F4806088B11C4C08682040194C44
:101330002064486860648868A064C868E0642046E7
:10134000406840F0410060600120E9E702F480203D
:1013500088B1124C086820400E4C206548686065D2
:101360008868A065C868E0652046406840F0810054
:1013700060600120D4E70020D2E700F01F020121C5
:1013800091404209920002F1E022C2F80011704738
:1013900000C00340008004400040044000000FC033
:1013A000014605E0002000E0401CB0F5964FFBD35D
:1013B0000A1EA1F10101F5D17047002000BF11E024
:1013C000002100EB8002654B03EB4202518000EBF1
:1013D000800203EB4202918000EB800223F812109E
:1013E000411CC8B20828EBDB7D215D4A11605D49D4
:1013F000897A01EB810149005B4A11807047002422
:10140000FEF77EFF0A20FFF7CBFF1821062003F02E
:10141000FBFB02F0C8FCFEF73DFF03F089FF6421EF
:10142000012004F028FA012004F039FDFEF732FF14
:10143000012002F060F903F067FCFFF7BEFF4949A5
:101440000879FFF71DFD47494879FFF786FD03F04E
:10145000DCFFFFF73EFC4FF4E131002002F074FAAC
:101460004FF4E131012002F06FFA012002F043F95C
:1014700000F0DBFA00F016FC1420FFF791FFFEF7F6
:1014800009FF3A4801F045FA01F0AAFA0020FFF7F7
:1014900027FC1420FFF784FF062035490870002040
:1014A00005F006FF00BF06E01E20FFF779FFFEF7FC
:1014B000F1FE601CC4B2642CF6DB2E482E49086095
:1014C00003202E4908800AF0CAFFFFF776FF44E0A8
:1014D0002B48006820B10BF0EDF800202849086087
:1014E0002848006810B10020264908602648006896
:1014F000012819D10020244908602448006880B9D7
:1015000007F0FAF92248007801280DDB214800682D
:10151000401C2049086000201D49087007F052FB5C
:1015200002E00120FFF73CFF1B48007B012810D19F
:10153000FEF7B0FE0AF092FFFEF7ACFE0EF03CFEA6
:10154000FEF7A8FE03F007FFFEF7A4FE00201249F5
:101550000873FFF7F4FCFFF701F9B9E7CC090010B5
:10156000440300101C2200104800001080DE0F0011
:101570002903001041C800009408001098080010CA
:10158000080000100C00001034020010B800001019
:10159000BC030010A8030010E426001010B5034699
:1015A0000C460021202C01DB002010BD00210CE0A6
:1015B000FE4850F8210030B9FC4840F82130803016
:1015C00040F8212003E0481CC1B22029F0DB00BF15
:1015D0000120EAE710B503460C460021202C01DB70
:1015E000002010BD00210CE0F14850F8210030B976
:1015F000EF4840F82130803040F8212003E0481CBB
:10160000C1B22029F0DB00BF0120EAE710B5034694
:101610000A46002100BF0CE0E44850F82100904247
:1016200005D101208840E34C2060084610BD481CCD
:10163000C1B22029F0DBFF20F8E710B503460A46C7
:10164000002100BF0CE0DA4850F82100904205D19B
:1016500001208840D74C2060084610BD481CC1B20C
:101660002029F0DBFF20F8E7F0B502460023002434
:1016700000200D784E7805EB06258E7805EB0645A3
:10168000CE7805EB06630D794E7905EB06258E794C
:1016900005EB0645CE7905EB066400BF53E000EB91
:1016A0004005C54E06EBC5052D69E5BB00EB4005C1
:1016B00006EBC5056A6000EB400556F8355025F489
:1016C000702500EB4006BC4F47F8365000EB400554
:1016D0003E4656F8355045F4002500EB400647F8E5
:1016E0003650B2F5006F0BD300EB40053E4656F87E
:1016F000355045F0004500EB400647F836500BE00A
:1017000000EB4005AC4E56F8355025F0004500EB97
:101710004006A94F47F8365000EB4005A64E06EBB1
:10172000C505AB6000E00CE000EB400506EBC5052D
:10173000EC60012500EB40069F4F07EBC6063561C4
:1017400003E0451CE8B21828A9DB00BFF0BDF0B5E6
:101750000346002400250020082A00DD08220E7818
:101760004F7806EB07268F7806EB0746CF7806EB17
:1017700007640E794F7906EB07268F7906EB07464B
:10178000CF7906EB0765002056E000EB40068A4F54
:1017900007EBC6063669EEBB00EB400607EBC60654
:1017A000736000EB400657F8366026F4702600EBB5
:1017B0004007DFF804C24CF8376000EB400667468C
:1017C00057F8366046EA024600EB40074CF83760AF
:1017D000B3F5006F0BD300EB4006674657F8366051
:1017E00046F0004600EB40074CF837600CE000EB99
:1017F0004006714F57F8366026F0004600EB400770
:10180000DFF8B4C14CF8376000EB40066A4F07EBD5
:10181000C60600E00EE0B46000EB400607EBC6062B
:10182000F560012600EB4007DFF88CC10CEBC70721
:101830003E6103E0461CF0B21828A6DB00BFF0BDF5
:10184000F0B502460023002400200D784E7805EB09
:1018500006258E7805EB0645CE7805EB06630D79F7
:101860004E7905EB06258E7905EB0645CE7905EB1D
:10187000066400BF53E000EB4005504E06EBC50583
:101880002D69E5BB00EB400506EBC5056A6000EB82
:10189000400556F8355025F4702500EB4006474FBB
:1018A00047F8365000EB40053E4656F8355045F4B3
:1018B000002500EB400647F83650B2F5006F0BD319
:1018C00000EB40053E4656F8355045F0004500EB2C
:1018D000400647F836500BE000EB4005374E56F80F
:1018E000355025F0004500EB4006344F47F83650A0
:1018F00000EB4005314E06EBC505AB6000E00CE0A7
:1019000000EB400506EBC505EC60012500EB400649
:101910002A4F07EBC606356103E0451CE8B21828DC
:10192000A9DB00BFF0BDF0B5034600240025002070
:1019300002F007020E784F7806EB07268F7806EB49
:101940000746CF7806EB07640E794F7906EB07263A
:101950008F7906EB0746CF7906EB076500BF60E09D
:1019600000EB4006154F07EBC606366946BB00EB99
:10197000400607EBC606736000EB400657F836607A
:1019800026F4702600EB4007DFF830C04CF83760D3
:1019900000EB4006674657F8366046EA024600EB21
:1019A00040074CF83760B3F5006F0AE0C41500102B
:1019B000C41600106C010010440B0010840D0010C0
:1019C0002DE00BD300EB4006674657F8366046F033
:1019D000004600EB40074CF837600CE000EB400697
:1019E000F74F57F8366026F0004600EB4007DFF867
:1019F000D0C34CF8376000EB4006F14F07EBC6064A
:101A0000B46000EB400607EBC606F560012600EB6C
:101A10004007DFF8ACC30CEBC7073E6103E0461C90
:101A2000F0B218289CDB00BFF0BD30B500240025C3
:101A300029466D1C4FF4FA624FF4FD60FFF7AEFDCE
:101A40002044C4B229466D1C4FF47A7240F28110D2
:101A5000FFF7A4FD2044C4B229466D1C4FF47A72EE
:101A60004FF4C170FFF79AFD2044C4B229466D1CA3
:101A70004FF47A7240F28310FFF790FD2044C4B215
:101A800029466D1C4FF47A724FF4C270FFF786FD41
:101A90002044C4B229466D1C4FF47A7240F285107E
:101AA000FFF77CFD2044C4B229466D1C4FF47A72C6
:101AB0004FF4C370FFF772FD2044C4B229466A1C7C
:101AC000D5B24FF47A7240F28710FFF767FD2044D9
:101AD000C4B229466A1CD5B24FF47A724FF4C4706E
:101AE000FFF75CFD2044C4B229466A1CD5B24FF40E
:101AF0007A7240F28910FFF751FD2044C4B22946A2
:101B00006A1CD5B24FF47A724FF4C970FFF746FDE4
:101B10002044C4B229466A1CD5B24FF47A7240F20E
:101B20009310FFF73BFD2044C4B229466A1CD5B28E
:101B30004FF47A724FF4CA70FFF730FD2044C4B2FC
:101B400029466A1CD5B24FF47A7240F29510FFF71D
:101B500025FD2044C4B229466A1CD5B24FF47A72DE
:101B60004FF4CB70FFF71AFD2044C4B229466A1C1B
:101B7000D5B24FF47A7240F29710FFF70FFD204470
:101B8000C4B229466A1CD5B24FF47A724FF4CC70B5
:101B9000FFF704FD2044C4B229466A1CD5B24FF4B5
:101BA0007A7240F29910FFF7F9FC2044C4B229463A
:101BB0006A1CD5B24FF47A7240F2A110FFF7EEFC26
:101BC0002044C4B229466A1CD5B24FF47A724FF44D
:101BD000D170FFF7E3FC2044C4B229466A1CD5B299
:101BE0004FF47A7240F2A310FFF7D8FC2044C4B23D
:101BF00029466A1CD5B24FF47A724FF4D270FFF7BF
:101C0000CDFC2044C4B229466A1CD5B24FF47A7286
:101C100040F2A510FFF7C2FC2044C4B229466A1C5A
:101C2000D5B24FF47A724FF4D370FFF7B7FC20446B
:101C3000C4B229466A1CD5B24FF47A7240F2A7109A
:101C4000FFF7ACFC2044C4B229466A1CD5B24FF45D
:101C50007A724FF4D470FFF7A1FC2044C4B2294635
:101C60006A1CD5B24FF47A7240F2A910FFF796FCC5
:101C70002044C4B229466A1CD5B24FF47A7240F2AD
:101C80008F20FFF78BFC2044C4B24E4800784E49A9
:101C900008704E4800784870084684700120C8706B
:101CA000204630BD30B50024002529466D1C4FF478
:101CB000FA624FF4FD60FFF78DFC2044C4B2294660
:101CC0006D1C4FF47A724FF44670FFF783FC20448A
:101CD000C4B229466D1C4FF47A7240F21930FFF7F6
:101CE00079FC2044C4B229466D1C4FF47A7250200E
:101CF000FFF770FC2044C4B229466D1C4FF47A7281
:101D00004FF4BF70FFF766FC2044C4B20020304996
:101D10000870304800784870084684700220C87007
:101D20002C49097801F5E06004222949FFF7FBFD01
:101D3000204630BD002000BF39E000EB4001264ABC
:101D400002EBC10109690A290CD300EB400102EB47
:101D5000C10109690A3900EB40021F4B03EBC202C3
:101D6000116106E0002100EB40021B4B03EBC202B5
:101D7000116100EB4001194A02EBC10109690A290E
:101D80000CD300EB400102EBC10109690A3900EBF9
:101D90004002124B03EBC202116106E0002100EB8E
:101DA00040020E4B03EBC2021161411CC8B2202855
:101DB000C3DB70477CB50546002400BF15E000007A
:101DC000840D0010AC000010EC000010290300107E
:101DD000F40000102A030010C40F0010C4120010F9
:101DE00000200DF80400601CC4B2082CF8DBFE488B
:101DF000007878B900208DF800008DF80100FB49CB
:101E0000097801F5E06001226946FFF7A0FC012096
:101E1000F549087005F0010000287DD0F4484078AD
:101E2000F2490978884277D1F1480078112827D102
:101E3000EF488078002815DDED488078802811DA99
:101E4000EB48C07818B9EA488078EA498870E848D1
:101E5000C078012803D1E6488078E649C870102090
:101E6000E149087011208DF8000000208DF8010074
:101E7000694640F2E670FFF7F7FB1120DA49087077
:101E8000DB480078122826D1D948C07818B9D8483C
:101E90008078D8498872D648C078012803D1D448C0
:101EA0008078D449C872D348807A00EB8000400023
:101EB000D14908803020CC49087012208DF80000EC
:101EC00000208DF80100694640F2E670FFF7CCFB78
:101ED0003120C5490870C648007813282DD1C44860
:101EE000C07848B9C2488078C2490871084600796C
:101EF000022801DD01200871BD48C078012809D100
:101F0000BB488078BB49487108464079022801DD0A
:101F100001204871202000E034E0B349087013200C
:101F20008DF8000000208DF80100694640F2E6704F
:101F3000FFF79AFB2120AC490870AD4800781728BC
:101F400020D1A020A849087002F08FFEA94880780F
:101F5000A6490870A748C078A8490870A848006832
:101F600040F08000A649086017208DF8000000208E
:101F70008DF80100694640F2E670FFF775FBA1207D
:101F800099490870984800787CBD10B526E09D48B6
:101F9000007800EB40009C4901EBC000006988B16B
:101FA00000209849097801EB4101974A02EBC101F1
:101FB00008619449097801EB410102EBC100FFF788
:101FC00037F90FE08F480078182802DB00208D4990
:101FD00008708C480078401C8A490870894800784D
:101FE0001828D4DB00BF87480078182802DB0020BF
:101FF0008449087026E08548007800EB4000844959
:1020000001EBC000006988B100208049097801EB2C
:1020100041017F4A02EBC10108617C49097801EB6B
:10202000410102EBC100FFF757F90FE07748007854
:10203000182802DB00207549087074480078401C9D
:1020400072490870714800781828D4DB00BF6F48C7
:102050000078182802DB00206C49087010BD70B5AC
:102060000546002400BF0121A1400120A0402840D6
:1020700081427ED10120A040854304EB44006549A4
:1020800001EBC000007A5A49087004EB4400614932
:1020900001EBC0000089000A5549487004EB440078
:1020A0005C4901EBC0008068000C5149887004EB6A
:1020B0004400584901EBC0008068000E4C49C870CC
:1020C00004EB4400534901EBC000007B4849087110
:1020D00004EB44004F4901EBC0008089000A4449E9
:1020E000487104EB44004B4901EBC000C068000C90
:1020F0003F49887104EB4400464901EBC000C068C9
:10210000000E3B49C87108460078F1282ED10846D8
:102110004078F2282AD108468078F32826D108464C
:10212000C078F42822D108460079F5280DD1084658
:102130004079F62809D1084680792C4909788842E7
:1021400003D12B48C0793449087029480079FF2809
:102150000FD12748407930490870254880792449B3
:10216000C97900EB01202D49086002E00120FFF74A
:1021700021FE70BD10B503460021002200BF04E01F
:102180000020274C6054481CC1B20829F8DB00210C
:102190007BE0244850F82100984274D10A4602EBB3
:1021A00042001C4C04EBC000007A1D4C207002EB76
:1021B0004200184C04EBC0000089000A184C607003
:1021C00002EB4200134C04EBC0008068000C144C7E
:1021D000A07002EB42000F4C04EBC0008068000EC0
:1021E0000F4CE07020E00000B00000102903001048
:1021F000CC0000101C220010480000102A03001020
:10220000AC00001070010010440B001071010010B0
:10221000840D0010C40F0010B1000010B4000010B5
:10222000BC000010C415001002EB4200CF4C04EBC0
:10223000C000007BCE4C207102EB4200CB4C04EB83
:10224000C0008089000ACA4C607102EB4200C74C92
:1022500004EBC000C068000CC54CA07102EB42004A
:10226000C24C04EBC000C068000EC14CE07102EB30
:102270004200BE4C04EBC000006910B9FF2010BD45
:1022800001E00846FBE7481CC1B2202981DBEE20B3
:10229000F5E730B504460A460021002300BF70E090
:1022A000B44850F82100A04269D10B4603EB43002B
:1022B000AE4D05EBC000007AAD4D287003EB430036
:1022C000AA4D05EBC0000089000AA94D687003EB18
:1022D0004300A64D05EBC0008068000CA44DA8701B
:1022E00003EB4300A14D05EBC0008068000EA04D3C
:1022F000E87003EB43009D4D05EBC000007B9C4D57
:10230000287103EB4300994D05EBC0008089000A5A
:10231000974D687103EB4300944D05EBC000C06816
:10232000000C934DA87103EB4300904D05EBC000EA
:10233000C068000E8E4DE87128460078107028465F
:10234000407850702846807890702846C078D070C9
:1023500028460079107128464079507128468079C6
:1023600090712846C079D07103EB43007F4D05EB97
:10237000C000006908B9FF2030BD0846FCE7481CD2
:10238000C1B220298CDBEE20F6E710B50346002110
:10239000002200BF04E00020774C6054481CC1B20A
:1023A0000829F8DB002158E0744850F821009842D1
:1023B00051D10A4602EB4200714C04EBC000007A96
:1023C0006D4C207002EB42006D4C04EBC0000089A4
:1023D000000A694C607002EB4200694C04EBC000DB
:1023E0008068000C644CA07002EB4200644C04EB6B
:1023F000C0008068000E604CE07002EB4200604C50
:1024000004EBC000007B5C4C207102EB42005C4C92
:1024100004EBC0008089000A574C607102EB420057
:10242000574C04EBC000C068000C534CA07102EB89
:102430004200534C04EBC000C068000E4E4CE071EB
:1024400002EB42004E4C04EBC000006908B9FF20CB
:1024500010BD0846FCE7481CC1B22029A4DBEE20D1
:10246000F6E730B504460A460021002300BF04E029
:102470000020414D6854481CC1B20829F8DB0021F6
:1024800070E03E4850F82100A04269D10B4603EBB2
:1024900043003B4D05EBC000007A374D287003EB3D
:1024A0004300374D05EBC0000089000A324D6870CB
:1024B00003EB4300324D05EBC0008068000C2E4D4D
:1024C000A87003EB43002E4D05EBC0008068000EA2
:1024D000294DE87003EB4300294D05EBC000007B5C
:1024E000254D287103EB4300254D05EBC000808985
:1024F000000A214D687103EB4300214D05EBC0003C
:10250000C068000C1C4DA87103EB43001C4D05EB8B
:10251000C000C068000E184DE871284600781070A1
:102520002846407850702846807890702846C078B9
:10253000D07028460079107128464079507128469D
:10254000807990712846C079D07103EB43000C4D1F
:1025500005EBC000006908B9FF2030BD0846FCE764
:10256000481CC1B220298CDBEE20F6E7C40F001016
:10257000BC000010C4150010C4000010C4160010E8
:10258000C412001070B5002000230022F74C216B0C
:1025900001F47F44CCB1C1F30721012906D00229FF
:1025A00007D0042908D008290CD108E0EF4C216994
:1025B00009E0EE4C616906E0EC4CA16903E0EB4CEC
:1025C000E16900E000BF00BF70BD01F48034002C61
:1025D0007ED0E64C6468C4F30B10802800D900203C
:1025E000CCB2012C06D0022C24D0042C71D0082CA3
:1025F00070D1BAE0DE4C2478CCB1DC4C2469C4F351
:102600000B10B0F5805F14D2DA4C2478002505EB6E
:102610008404D94D55F824402518D64C247800263A
:1026200006EB8404D44E46F82450034601E0CF4C18
:10263000216902E1CE4C2478002C70D0CB4C646927
:10264000C4F30B10B0F5805F11D2CA4C2478012579
:1026500005EB8404C84D55F824402518C54C247852
:10266000012606EB8404C44E46F824500346C14CB0
:102670002478641CBF4D2C702C462478042C07DB76
:10268000BE4C2468641CBD4D2C600024B94D2C70D8
:10269000B84C247854B9BA4CE46D44F48074B84D05
:1026A000EC652C46E46D44F08004EC65B14C247874
:1026B000012C0AD1B24CE46D44F48074B04DEC6549
:1026C0002C46A46D44F08004AC65AA4C247802E04A
:1026D000B4E02AE0B0E0022C0AD1A94CA46D44F485
:1026E0008074A74DAC652C46E46D44F08004EC6525
:1026F000A04C2478032C0AD1A14CA46D44F480741E
:102700009F4DAC652C46A46D44F08004AC6500245C
:10271000974D2C702C702C702C7005E0FFE7934CBB
:1027200061690124924D2C7087E0914C2478CCB1E2
:102730008E4CA469C4F30B10B0F5805F14D28D4C9D
:102740002478022505EB84048B4D55F82440251888
:10275000884C2478022606EB8404874E46F82450E1
:10276000034601E0814CA16967E0814C2478002C8C
:102770005CD07E4CE469C4F30B10B0F5805F11D2DD
:102780007C4C2478032505EB84047B4D55F82440CC
:102790002518784C2478032606EB8404764E46F8F8
:1027A00024500346734C2478641C724D2C702C46C4
:1027B0002478032C07DB714C2468641C6F4D2C605B
:1027C00000246C4D2C706B4C247854B96C4CE46D27
:1027D00044F480746A4DEC652C46E46D44F080044A
:1027E000EC65644C2478012C0AD1654CE46D44F40A
:1027F0008074634DEC652C46A46D44F08004AC6598
:102800005C4C2478022C0AD15D4CA46D44F4807495
:102810005B4DAC652C46E46D44F08004EC6500240F
:10282000534D2C702C702C702C7004E04F4CE169CF
:1028300001244F4D2C7000E000BF00BF4F4C2468B6
:10284000202C18DB00220CE04B4C54F82240640989
:102850004C4D45F822400024474D45F82240541C79
:10286000E2B2102AF0DB0024444D2C60464C246870
:10287000641C454D2C603D4C246824F0FF043B4D06
:102880002C602C462468414D2E680125B5402C4310
:10289000364D2C602C46246844F080742C603B4CF0
:1028A0002468641C394D2C602C46246804F0010413
:1028B0002C6000BF88E60021102800DB00202B4A96
:1028C000126822F0FF02294B1A601A46126801238F
:1028D000834043F080731A43244B1A60704770B5ED
:1028E00088B00646202168460DF0E1FE0025002450
:1028F00009E03046FFF7DFFF4DF824005DF82400C3
:102900000544601CC4B2042CF3DBAD08284608B0B3
:1029100070BD30B5024600201C4C20601C48006889
:1029200040F480501A4CC43CC4F8C40019484068B4
:1029300020F47030174C60602046406840F4A030AE
:1029400060601348E4300068C0F3016333B1012BC9
:1029500008D0022B22D0032B24D000BF0E480068E1
:10296000810823E00C48016820E00000004003409B
:10297000D8010010CC010010C4170010D4010010C1
:1029800000C0092004180010D001001078010010C8
:10299000C4C00F4000C0024000000010FE480068A4
:1029A000410803E0FC480068C10800BF00BFB1FB5C
:1029B000F2F0401E012444EA002040F40010F74CDD
:1029C000206040F20310E060162001248440450995
:1029D000AD0005F1E025C5F8004100BF012030BD84
:1029E000EE48006820F0E060EC49086008460068A6
:1029F00040F0807008607047E848006820F0E060B0
:102A0000E64908607047E548006800F0E06028B1DA
:102A1000E248006820F0E060E0490860DF480068B4
:102A200020F0FF00DD4908600846006840F0FF0024
:102A300008600846006840F480300860704703B5BD
:102A400089B0002008900998C0B210287ED008DC18
:102A500001280DD002287AD0042879D0082878D10E
:102A6000F3E1202876D0402875D08028F7D1C2E342
:102A7000CB480088CB490880CB480088C8490880EB
:102A8000C9490A980880084600880FF04FFFC74AD6
:102A9000C74BCDE904010FF099FFCDE906010FF016
:102AA0008BFC0890BE4800880FF040FFBF4AC14B26
:102AB000CDE900010FF08AFFCDE90401089810F07C
:102AC00095FACDE90201DDE904230FF0A7FCCDE979
:102AD00006010FF071FC0890B24800880FF026FF45
:102AE000B24AB34BCDE900010FF070FFCDE904010C
:102AF000089810F07BFACDE90201DDE904230FF01C
:102B00008DFCCDE906010FF057FC0890AA4800881B
:102B10000FF00CFFA94AAA4BCDE900010FF056FFB8
:102B2000CDE90401089810F061FACDE90201DDE970
:102B300004230FF073FCCDE906010FF03DFC089073
:102B4000A04800880FF0F2FE9F4A05E00EE227E061
:102B5000B7E0F8E39BE22BE39C4BCDE900010FF0DB
:102B600035FFCDE90401089810F040FACDE90201E3
:102B7000DDE904230FF052FCCDE906010FF01CFC47
:102B80000890089810F0DEFB80B2914908608A48EE
:102B900000888C4908808E4800888749088075E243
:102BA0008C4800888C4908808C48008889490880B6
:102BB0008A490A980880084600880FF0B7FE7B4AC9
:102BC0007B4BCDE904010FF001FFCDE906010FF0C9
:102BD000F3FB08907F4800880FF0A8FE734A754BFE
:102BE000CDE900010FF0F2FECDE90401089810F0E4
:102BF000FDF9CDE90201DDE904230FF00FFCCDE979
:102C000006010FF0D9FB0890734800880FF08EFE84
:102C1000664A674BCDE900010FF0D8FECDE904010B
:102C2000089810F0E3F9CDE90201DDE904230FF083
:102C3000F5FBCDE906010FF0BFFB0890684800885E
:102C40000FF074FE5D4A5E4BCDE900010FF0BEFE51
:102C5000CDE90401089810F0C9F9CDE90201DDE9D8
:102C600004230FF0DBFBCDE906010FF0A5FB089074
:102C70005C4800880FF05AFE534A544BCDE90001DE
:102C80000FF0A4FECDE90401089810F0AFF9CDE9EA
:102C90000201DDE904230FF0C1FBCDE906010FF0CD
:102CA0008BFB0890089810F04DFB80B248494860B3
:102CB0004B4800884B49088045488088484908802F
:102CC000D4E3494800884949088049480088464972
:102CD000088047490A980880084600880FF026FEB9
:102CE000324A334BCDE904010FF070FECDE9060105
:102CF0000FF062FB08903C4800880FF017FE2B4A4B
:102D00002C4BCDE900010FF061FECDE904010898DC
:102D100010F06CF9CDE90201DDE904230FF07EFB30
:102D2000CDE906010FF048FB0890304800880FF00D
:102D3000FDFD1E4A1E4BCDE900010FF047FECDE917
:102D40000401089810F052F9CDE90201DDE90423ED
:102D50000FF064FBCDE906010FF02EFB089025482B
:102D600000880FF0E3FD154A154BCDE900010FF087
:102D70002DFECDE90401089810F038F9CDE90201E3
:102D8000DDE904230FF04AFBCDE906010FF014FB47
:102D900008901948008831E000000010004003400E
:102DA0008C0100109C0100107C01001082CB00A35C
:102DB0000DB89D3F0DB8AD3FAC010010B82642C222
:102DC000AE20F63FBC010010C2CDC871BEF0DFBF1F
:102DD000441800108E0100109E0100107E010010AA
:102DE000AE010010BE01001090010010A001001003
:102DF00080010010B0010010C00100100FF096FD1E
:102E0000FD4AFE4BCDE900010FF0E0FDCDE90401E4
:102E1000089810F0EBF8CDE90201DDE904230FF08A
:102E2000FDFACDE906010FF0C7FA0890089810F0F6
:102E300089FA80B2F2498860F2480088F249088035
:102E4000EF480089EF49088010E3F0480088F04916
:102E50000880F0480088ED490880EE490A9808800B
:102E6000084600880FF062FDEB4AEC4BCDE9040107
:102E70000FF0ACFDCDE906010FF09EFA0890E34893
:102E800000880FF053FDE44AE54BCDE900010FF057
:102E90009DFDCDE90401089810F0A8F8CDE90201E4
:102EA000DDE904230FF0BAFACDE906010FF084FA48
:102EB0000890D74800880FF039FDD74AD74BCDE9A5
:102EC00000010FF083FDCDE90401089810F08EF8A1
:102ED000CDE90201DDE904230FF0A0FACDE90601F6
:102EE0000FF06AFA0890CF4800880FF01FFDCE4A15
:102EF000CE4BCDE900010FF069FDCDE90401089842
:102F000010F074F8CDE90201DDE904230FF086FA30
:102F1000CDE906010FF050FA0890C54800880FF07F
:102F200005FDB54AB54BCDE900010FF04FFDCDE9E8
:102F30000401089810F05AF8CDE90201DDE90423F4
:102F40000FF06CFACDE906010FF036FA08900898F8
:102F500010F0F8F980B2AA49C860B2480088B449B4
:102F60000880A7488089AF4908807FE2B14800887F
:102F7000B1490880B1480088AE490880AF490A9835
:102F80000880084600880FF0D1FCA34AA34BCDE986
:102F900004010FF01BFDCDE906010FF00DFA0890BA
:102FA000A44800880FF0C2FC9B4A9D4BCDE900016C
:102FB0000FF00CFDCDE90401089810F017F8CDE9E9
:102FC0000201DDE904230FF029FACDE906010FF033
:102FD000F3F90890984800880FF0A8FC8E4A8F4BB0
:102FE000CDE900010FF0F2FCCDE9040108980FF0E3
:102FF000FDFFCDE90201DDE904230FF00FFACDE971
:1030000006010FF0D9F908908D4800880FF08EFC6A
:10301000854A864BCDE900010FF0D8FCCDE90401CB
:1030200008980FF0E3FFCDE90201DDE904230FF07A
:10303000F5F9CDE906010FF0BFF908908148008845
:103040000FF074FC6C4A6D4BCDE900010FF0BEFC33
:10305000CDE9040108980FF0C9FFCDE90201DDE9CF
:1030600004230FF0DBF9CDE906010FF0A5F9089074
:10307000089810F067F980B26149086170480088CB
:10308000704908805E48008A6D490880EEE16E480C
:1030900000886E4908806E4800886B4908806C493A
:1030A0000A980880084600880FF040FC5A4A5B4B9B
:1030B000CDE904010FF08AFCCDE906010FF07CF99F
:1030C0000890614800880FF031FC534A544BCDE919
:1030D00000010FF07BFCCDE9040108980FF086FF9A
:1030E000CDE90201DDE904230FF098F9CDE90601ED
:1030F0000FF062F90890554800880FF017FC464A17
:10310000464BCDE900010FF061FCCDE904010898C0
:103110000FF06CFFCDE90201DDE904230FF07EF929
:10312000CDE906010FF048F908904A4800880FF0F1
:10313000FDFB3D4A3D4BCDE900010FF047FCCDE9D9
:10314000040108980FF052FFCDE90201DDE90423E4
:103150000FF064F9CDE906010FF02EF908903E4812
:1031600000880FF0E3FB244A244BCDE900010FF067
:103170002DFCCDE9040108980FF038FFCDE90201DC
:10318000DDE904230FF04AF9CDE906010FF014F947
:103190000890089810F0D6F880B2194948612D4877
:1031A00000882D4908801648808A2A4908805DE1F8
:1031B0002A4800882A4908802A4800882749088028
:1031C00028490A980880084600880FF0AFFB124A89
:1031D000124BCDE904010FF0F9FBCDE906010FF028
:1031E000EBF808901D4800880FF0A0FB0A4A0C4B32
:1031F000CDE9000138E0A7E0C2CDC871BEF0DFBF65
:1032000044180010B0010010C0010010920100101D
:10321000A20100108201001082CB00A30DB89D3FD7
:103220000DB8AD3FB2010010B82642C2AE20F63F45
:10323000C201001094010010A401001084010010CC
:10324000B4010010C401001096010010A601001086
:1032500086010010B6010010C60100109801001090
:10326000A8010010880100100FF0B0FBCDE90401A7
:1032700008980FF0BBFECDE90201DDE904230FF051
:10328000CDF8CDE906010FF097F808908A4800883C
:103290000FF04CFB894A8A4BCDE900010FF096FBF9
:1032A000CDE9040108980FF0A1FECDE90201DDE9A6
:1032B00004230FF0B3F8CDE906010FF07DF8089074
:1032C000804800880FF032FB7F4A804BCDE9000137
:1032D0000FF07CFBCDE9040108980FF087FECDE9E3
:1032E0000201DDE904230FF099F8CDE906010FF0A2
:1032F00063F80890764800880FF018FB754A764B03
:10330000CDE900010FF062FBCDE9040108980FF050
:103310006DFECDE90201DDE904230FF07FF8CDE970
:1033200006010FF049F80890089810F00BF880B2E9
:103330006A49886163480088654908806748008B4E
:103340006049088092E090E06548008865490880FF
:10335000654800886249088063490A9808800846E1
:1033600000880FF0E3FA554A554BCDE904010FF000
:103370002DFBCDE906010FF01FF808905848008892
:103380000FF0D4FA4D4A594BCDE900010FF01EFB66
:10339000CDE9040108980FF029FECDE90201DDE92D
:1033A00004230FF03BF8CDE906010FF005F8089073
:1033B0004C4800880FF0BAFA404A414BCDE9000171
:1033C0000FF004FBCDE9040108980FF00FFECDE9E2
:1033D0000201DDE904230FF021F8CDE906010EF02A
:1033E000EBFF0890424800880FF0A0FA364A374BAE
:1033F000CDE900010FF0EAFACDE9040108980FF0D9
:10340000F5FDCDE90201DDE904230FF007F8CDE970
:1034100006010EF0D1FF0890364800880FF086FABA
:103420002C4A2D4BCDE900010FF0D0FACDE9040173
:1034300008980FF0DBFDCDE90201DDE904230EF071
:10344000EDFFCDE906010EF0B7FF089008980FF0E8
:1034500079FF80B22149C861254800882549088044
:103460001E48808B2249088000E000BF00BF0BB0DF
:1034700000BD2148406820F440101F4948600846BC
:10348000406840F4001048600846406C20F440104A
:1034900048641A48006840F4803018490860704752
:1034A000B0F5806F01DB40F2FF304FF4803141EA2C
:1034B0008011124A11607047A801001082CB00A34E
:1034C0000DB89D3FB8010010B82642C2AE20F63FAD
:1034D000C8010010C2CDC871BEF0DFBF4418001093
:1034E0009A010010AA0100108A0100100DB8AD3F2A
:1034F000BA010010CA01001000C0024000C008401C
:10350000A2494968C8B200F0070100296FD1C11073
:103510000C296CD2DFE801F0BF061021B73738C0A4
:1035200076B885869A490978984A916028219161F0
:103530000121984A1160B3E097490968012905D132
:103540009349097841F00101904A916028218F4AFE
:10355000916102218F4A1160A2E08E490968012918
:103560000DD18B498D4A1268895C884A91608B49DC
:103570000968491C894A11600421864A11600821A2
:10358000824A91618CE000BF84490968844A1268CC
:10359000914222D281490968814A1268914203D23C
:1035A00004217C4A11600CE005217A4A11607D49B2
:1035B000096831B12021754A11600321754A1160F3
:1035C0006EE07349754A1268895C704A916073496C
:1035D0000968491C714A116010E07249096839B1E3
:1035E00020216A4A116003216A4A116006E052E014
:1035F0000521684A11601021644A11600821634A5C
:1036000091614DE067490968012903D104215F4AAE
:10361000916102E004215D4A116008215B4A9161D9
:103620003EE000BF594989685F4A604B1B68D1542E
:103630005E490968491C5D4A11605A490968491E7A
:103640001268914205D90421524A11604F4A116013
:1036500015E054490968491E544A1268914205D13F
:1036600004214C4A1160494A916108E000214F4A07
:1036700011600521474A11600421444A91610821E3
:10368000424A91610CE000BF0821404A9161052146
:10369000404A116004E000BF08213C4A916100BF2C
:1036A00000BF7047002100202022384B1A600BE039
:1036B000384A1268012A01D1012006E03C4A9142B1
:1036C00001D3002001E0491CF2E700BF491C70470C
:1036D000384910202D4A10600820906102E0491EF0
:1036E00001B905E02948006800F010000028F6D173
:1036F00000BF0120704701462F48006840F080005D
:103700002D4AC43AC2F8C4002C48406820F07070BA
:103710002A4A50601046406840F0A07050606C200B
:103720001A4A90617820506110610A20012282407B
:1037300043099B0003F1E023C3F8002100BF4020B0
:10374000124A10600120704710B5194C0020114931
:10375000086016490860012010490860FFF7A2FFC1
:10376000012803D0FFF7B4FF002010BD09E009488D
:103770000068052802D1FFF7ABFF03E0641E04B91F
:1037800000E0F4E700BF0120EFE7000000C00140C7
:1037900084180010E4010010EC0100100402001075
:1037A000FC010010F80100100419001000020010C4
:1037B000FFFF0F00FFFF0300C4C00F4000C0024026
:1037C00030B500BFC64B9B68D8B2401000F0070070
:1037D00003281FD1C24B197D01F09E0323B1C14BB9
:1037E0001960BF4B1A7830BD01F00103002B46D0A1
:1037F000BB4B1B78BC4CBD4D2D686355BB4B1B6848
:103800005B1CBA4C236023461B68402B37D1002336
:10381000236034E0022815D1B14B1B78B24CB34D74
:103820002D686355B14B1B685B1CB04C23600323B0
:10383000AF4C2360AD4B1B683F2B20D10023AB4C1A
:1038400023601CE006280CD1A64B1B6843F4807350
:10385000A44C23600123A74C23600023A44C2360C5
:103860000DE001280BD19E4B197D01F020031BB107
:103870000123A14C237002E000239F4C237000BF62
:10388000B1E730B500BF9D4B9B68D8B2401000F047
:1038900007009B4B186003281FD1984B197D01F03E
:1038A0009E0323B1974B1960944B1A7830BD01F0F9
:1038B0000103002B46D0914B1B78934C934D2D6800
:1038C0006355924B1B685B1C904C236023461B681E
:1038D000402B37D10023236034E0022815D1874BD9
:1038E0001C78894B894D2D685C55884B1B685B1C87
:1038F000864C23600323864C2360844B1B683F2B3C
:1039000020D10023814C23601CE006280CD17D4B84
:103910001B6843F480737B4C236001237D4C236040
:1039200000237B4C23600DE001280BD1734B197DE4
:1039300001F020031BB10123774C237002E0002328
:10394000754C237000BFB1E72DE9F041074688466A
:10395000002F3CD17148006820F0F0006F490860EA
:103960000846006840F0500008606D480068C0F3E9
:10397000811636B1012E08D0022E09D0032E0BD0AD
:1039800000BF6848006884080AE06648046807E0E9
:1039900064480068440803E062480068C40800BF47
:1039A00000BF83204E4908732509B5FBF8F5280AA6
:1039B00008710D700320087307200872052000F0BD
:1039C00084F80720464948600120BDE8F081012FB6
:1039D00045D15248006820F04040504908600846F0
:1039E000006840F0804008600846406820F003000E
:1039F00048600846406840F0010048604848006858
:103A0000C0F3012636B1012E08D0022E09D0032EB4
:103A10000BD000BF4348006884080AE041480468AE
:103A200007E040480068440803E03E480068C408D6
:103A300000BF00BF8320314908732009B0FBF8F5AF
:103A4000280A08710D7003200873072008720620E9
:103A500000F03BF80720294948600120B5E7002025
:103A6000B3E730B50023B8B913E04FF4FA6300BFF1
:103A7000214C247804F001041CB91C1EA3F101039D
:103A8000F6D10C78164D2C7000241B4D2C70491C5F
:103A9000521E002AE9D116E013E04FF4FA6300BF8A
:103AA0001D4C247804F001041CB91C1EA3F1010371
:103AB000F6D10C78114D2C700024174D2C70491C38
:103AC000521E002AE9D1002330BD00F01F0201215F
:103AD00091404209920002F1E022C2F800117047C1
:103AE00000C0004014020010A419001020020010B1
:103AF00028020010300200101C02001000000140DB
:103B00003808001018020010E419001024020010F8
:103B10002C020010340200101D02001000C00240F0
:103B2000A8C10F400000001010B50346642B01DB54
:103B3000002010BDC1B1FE4800EBC300407948B978
:103B4000FB4840F8332000EBC3000171F84800EB5C
:103B5000C3004171F64850F83300A0B90120F44C7D
:103B600004EBC304A0710EE00020F14C44F83300D4
:103B700004EBC3042071EE4C04EBC3046071EC4C05
:103B800004EBC304A0710120D3E730B503460A2B30
:103B900001DB002030BDB1B103EB4300E54C44F83C
:103BA000202003EB430004EB8000426003EB430062
:103BB00004EB80000172012003EB4304DD4D05EBB3
:103BC0008404607218E003EB4300DA4C54F82000E0
:103BD00030B9002003EB4304D64D05EB840460723A
:103BE000002003EB4304D34D05EB8404606003EB3A
:103BF000430405EB840420720120CBE730B5034673
:103C0000192B01DB002030BD00291CDD03EB430034
:103C1000C94C04EB80004078A8B903EB430004EBE7
:103C20008000417003EB430004EB8000027203EB61
:103C3000430004EB80004068401C03EB4304BE4D8E
:103C400005EB8404606031B9002003EB4304BA4DF6
:103C500005EB840460700120D5E730B50346192BCD
:103C600001DB002030BDE9B903EB4300B34C04EBAA
:103C700080004078002815DD03EB430004EB800052
:103C8000417003EB430004EB8000027203EB43003E
:103C900004EB80004068401C03EB4304A74D05EB98
:103CA00084046060002906DD012003EB4304A34D7A
:103CB00005EB840460700120D4E710B502460020B3
:103CC0000023002100BF0FE012F8011B01B910BD55
:103CD00000EB80046000302904DB392902DCA1F10B
:103CE000300420445C1CE3B2102BEDDB00BFEEE798
:103CF00010B5024600200023002100BF1CE012F88E
:103D0000011B01B910BD0001302904DB392902DC97
:103D1000A1F13004E1B2412904DB462902DCA1F122
:103D20003704E1B2612904DB662902DCA1F1570402
:103D3000E1B208445C1CE3B2102BE0DB00BFE1E71A
:103D4000F0B502460B46002100250020002400BFEC
:103D500025E04E1CF1B212F8010B00B9F0BD30287D
:103D600004DB392802DCA0F13006F0B2412804DB84
:103D7000462802DCA0F13706F0B2612804DB662891
:103D800002DCA0F15706F0B200EB0416F4B201F029
:103D9000010626B92E466F1CFDB29C550024202931
:103DA000D7DB00BFDAE770B500240025FCF724FA62
:103DB00000BF17E0624810F81400AA2800D113E0F1
:103DC0005F4810F814005F49202202FB00152868A4
:103DD0005B4901EB44014A78012191408843286006
:103DE000601CC4B20C2CE5DB00BF002417E0564871
:103DF00010F81400AA2800D113E0534810F814005A
:103E00005049202202FB001528684F4901EB44016C
:103E10004A780121914088432860601CC4B2182C64
:103E2000E5DB00BF002420E0484810F81400AA2871
:103E300000D11CE0454810F814004249202202FB42
:103E400000152868414901EB44014A78012191405D
:103E500008432860E8693D4901EB44014A780121A3
:103E600091400843E861601CC4B20C2CDCDB00BF4D
:103E7000002422E0364810F81400AA2802D1354860
:103E800004701CE0324810F814002E49202202FB76
:103E9000001528682E4901EB44014A780121914020
:103EA00008432860E8692A4901EB44014A78012166
:103EB00091400843E861601CC4B2142CDADB00BFF7
:103EC00070BD30B500200021002200BF76E01C4B01
:103ED00013F81030AA2B00D172E0194B13F81030F0
:103EE000184C202505FB03425369154C04EB400494
:103EF00065780124AC402340114C04EB4004657804
:103F00000124AC40A34201D1012300E00023194663
:103F1000A1BB114B1B5C1E2B04DA0F4B1B5C5B1C03
:103F20000D4C23540C4B1B5C0A2B45D1012315E08F
:103F3000001B0010201E0010981E0010C41F00104F
:103F40007B02001000C00920AB0200109302001099
:103F5000DB02001078020010E81A0010F94C23541C
:103F60008340F94C24682343F74C236001238340AA
:103F7000F64C24682343F54C23601DE0FFE7F44B27
:103F80001B5C002B04DDF24B1B5C5B10F04C2354DC
:103F9000EF4B1B5C83B90023EA4C2354012383407D
:103FA000E94C24689C43E84B1C6001238340E74CA8
:103FB00024689C43E54B1C60431CD8B20C2886DB6C
:103FC00000BFE14B1B68E34C236030BD10B50020FF
:103FD000002100BF2EE0E04A12F81020AA2A00D1EA
:103FE0002AE0DE4A12F81020DD4B202404FB0231C7
:103FF00001228240D54B1B681A40012383409A421C
:1040000001D1012200E000224AB18A69D34B03EBBF
:1040100040035C780123A3401A438A6108E0CA691F
:10402000CE4B03EB40035C780123A3401A43CA61E3
:10403000421CD0B20C28CEDB00BF10BDF0B5002072
:10404000002100230A22002400BFA2E0C54D15F87C
:104050001050AA2D00D19FE0C24D15F81050552DDB
:1040600000D194E0BF4D15F81050BD4E202707FB3E
:104070000564022846D0072844D00A226569B94E53
:1040800006EB400677780126BE403540B54E06EB7C
:10409000400677780126BE40B54201D1012500E0F7
:1040A00000252B46BBB9B04D2E5C951CAE4204DA00
:1040B000AD4D2D5C6D1CAC4E3554AB4D2D5C954219
:1040C00064D10125A94E35548540A94E3668354343
:1040D000A74E35605AE0A44D2D5C002D04DDA24DA5
:1040E0002D5C6D1EA04E35549F4D2D5C002D4DD185
:1040F0009E4E3554012585409D4E3668AE439C4DFD
:104100002E6043E06569974E06EB400677780126FE
:10411000BE403540934E06EB400677780126BE4000
:10412000B54201D1012500E000252B46012B17D116
:104130008D4D2E5C951CAE4204DA8B4D2D5C6D1CB2
:10414000894E3554884D2D5C95421FD10125874EEF
:1041500035548540864E36683543854E356015E0CA
:10416000814D2D5C002D04DD7F4D2D5C6D1E7E4E3E
:1041700035547D4D2D5C4DB900257C4E35540125BF
:1041800085407B4E3668AE43794D2E6000BF451C9E
:10419000E8B21828FFF65AAF00BF0121754D55F857
:1041A0002150B5F5FA6F06D9714D2D6845F002051D
:1041B0006F4E35600BE06F4D55F82150B5F5966F99
:1041C00005D26B4D2D6825F00205694E3560022140
:1041D000684D55F82150B5F5FA6F06D9644D2D6834
:1041E00045F00805624E35600BE0624D55F82150F0
:1041F000B5F5966F05D25E4D2D6825F008055C4E2D
:10420000356003215B4D55F82150B5F5FA6F06D99D
:10421000574D2D6845F02005554E35600BE0554D46
:1042200055F82150B5F5966F05D2514D2D6825F002
:1042300020054F4E356004214E4D55F82150B5F5FF
:10424000FA6F06D94A4D2D6845F04005484E356055
:104250000BE0484D55F82150B5F5966F05D2444D09
:104260002D6825F04005424E35600521414D55F839
:104270002150B5F5FA6F06D93D4D2D6845F480659E
:104280003B4E35600BE03B4D55F82150B5F5966F30
:1042900005D2374D2D6825F48065354E3560F0BD6B
:1042A0002DE9F04105460E464FF000080024002796
:1042B00031480078854201DBBDE8F0813746642F44
:1042C00000DD642700240DE02C4800EB440040781A
:1042D000A84205D1294911F81400394601F039FBEB
:1042E000601CC4B2062CEFDB00BFE5E770B50B46DF
:1042F000002221490978884200DB70BD204911F86D
:104300001010174C202505FB0142EBB391691C4CA2
:1043100004EB400465780124AC4021439161C4174B
:1043200000EB5474E410174D2C5D00F007060125D6
:10433000B5402C430146C51700EB5575ED10114EE5
:1043400074553DE0D01A0010380200103C020010F5
:10435000E81A0010400200107B02001093020010C7
:1043600000C00920AB020010B81A0010A01A0010FB
:1043700044020010C40A0010780200100303001069
:10438000DB02001070020010FFE7D169604C04EB03
:10439000400465780124AC402143D161C41700EB8F
:1043A0005474E4105B4D2C5D00F007060125B54008
:1043B000AC430146C51700EB5575ED10554E7455CD
:1043C00000BF9AE770B50B4600225349097888422E
:1043D00000DB70BD4E4911F81010504C202505FB34
:1043E0000142DBB191694A4C04EB40046578012439
:1043F000AC4021439161C41700EB5474E410454D67
:104400002C5D00F007060125B5402C430146C51779
:1044100000EB5575ED103F4E74551AE0D1693C4CD8
:1044200004EB400465780124AC402143D161C417FA
:1044300000EB5474E410374D2C5D00F007060125A5
:10444000B540AC430146C51700EB5575ED10314E34
:10445000745500BFBDE7F0B50346002000240022DC
:1044600000BF51E02C490978884200DBF0BD0121F2
:10447000814001EA0305012181408D4201D10121E2
:1044800000E000210C46224911F81010234D20268F
:1044900006FB0152DCB191691D4D05EB40056E78BC
:1044A0000125B54029439161C51700EB5575ED1005
:1044B000184E755D00F007070126BE4035430146E2
:1044C000C61700EB5676F610124FBD551AE0D169AB
:1044D0000F4D05EB40056E780125B5402943D161AC
:1044E000C51700EB5575ED100A4E755D00F0070716
:1044F0000126BE40B5430146C61700EB5676F610BE
:10450000044FBD55411CC8B21428ABDB00BFADE75A
:10451000DB020010700200107802001000C00920B9
:1045200007E0002100E0491C44F606329142FAD32C
:10453000401E0028F5D17047014601F00F00091117
:1045400001F00F0101EB810251004218D0B2704717
:1045500010B501460A2091FBF0F0C2B20A2091FB8F
:10456000F0F400FB1410C3B203EB0210C0B210BD94
:104570002DE9F04107460D460026002400BF04E067
:104580000020FE498855701CC6B2802EF8DB00243E
:104590000120FB4908602146641CF8484754C5F3D4
:1045A00007222146641C42542146641C4554F548A8
:1045B00004600120F4490860FFF7C6F8F34800786A
:1045C000BDE8F0812DE9F04107460D4690460026F2
:1045D000002400BF04E00020E8498855701CC6B2E2
:1045E000802EF8DB00240020E54908602146641C89
:1045F000E2484754C5F307222146641C4254214631
:10460000641C45542146641C00F80180DD480460A8
:10461000FFF79AF80020BDE8F0812DE9F0478146C8
:104620000E46174698460025002400BF04E00020EF
:10463000D2490855601CC4B2802CF8DB0025D04854
:10464000C0F8008029466D1CCC4800F80190C6F3E4
:10465000072229466D1C425429466D1C4654C94800
:1046600005600120C8490860FFF76EF8002405E0E6
:10467000C648005D07F8010B601CC4B24445F7DB77
:104680002046BDE8F0872DE9F05F824688469146D6
:104690001C4600250026AB4600273DE0402C07DBEA
:1046A0004FF0400BA4F14000C4B2781CC7B203E045
:1046B000781CC7B2A346002400260BF10300B149C1
:1046C00008600020AE4908603146761CAB4800F80F
:1046D00001A0781E08EB8010C0F307223146761C3B
:1046E000A6484254781E08EB8010C2B23146761CB0
:1046F000A2484254002506E019F8010BA9199F4A67
:104700005054681CC5B25D45F6DBFFF71DF8002C60
:1047100002DD0A20FCF744FE002CBFDC2846BDE881
:10472000F09F10B500243F21DE20FFF721FF044653
:10473000601C08B9012010BD95490C703721DE209E
:10474000FFF716FF0446601C08B90120F3E7914902
:104750000C700020EFE73EB5002408236A463021A4
:10476000DE20FFF75AFF00BF2246641C1DF802003E
:10477000FFF7E2FE884908702246641C1DF802001B
:10478000FFF7DAFE844948702246641C1DF80210C7
:1047900001F07F00FFF7D0FE7F4988702246641C3D
:1047A0001DF80200FFF7C8FE7B49C8702246641C52
:1047B0001DF80200FFF7C0FE774908712246641C0D
:1047C0001DF80200FFF7B8FE734948712246641CC9
:1047D0001DF80200FFF7B0FE6F4988712146621C88
:1047E000D4B21DF80100FFF7A7FE6B49C871002085
:1047F0003EBD2DE9F05F81460D4616461F46DDE9B8
:104800000AAB002402223F21DE20FFF7DBFE20441A
:10481000C4B206223F21DE20FFF7D4FE2044C4B2FA
:104820004FF0000842461021DE20FFF7CBFE204467
:10483000C4B20A20FFF774FE02223F21DE20FFF7F8
:10484000C1FE2044C4B206223F21DE20FFF7BAFE9B
:104850002044C4B24FF0980842461121DE20FFF7F1
:10486000B1FE2044C4B20A20FFF75AFE02223F21C3
:10487000DE20FFF7A7FE2044C4B206223F21DE203F
:10488000FFF7A0FE2044C4B24FF0000842461221B8
:10489000DE20FFF797FE2044C4B20A20FFF740FE57
:1048A00002223F21DE20FFF78DFE2044C4B2062203
:1048B0003F21DE20FFF786FE2044C4B200BF4246FF
:1048C0001321DE20FFF77EFE2044C4B20A20FFF74A
:1048D00027FE02223F21DE20FFF774FE2044C4B2EF
:1048E00006223F21DE20FFF76DFE2044C4B2584669
:1048F000FFF72EFE804642463021DE20FFF762FEA3
:104900002044C4B20620FFF70BFE02223F21DE2026
:10491000FFF758FE2044C4B206223F21DE20FFF7F5
:1049200051FE2044C4B25046FFF712FE8046424674
:104930003121DE20FFF746FE2044C4B20620FFF7F7
:10494000EFFD02223F21DE20FFF73CFE2044C4B2EF
:1049500006223F21DE20FFF735FE2044C4B2384650
:10496000FFF7F6FD804608F18000C2B23221DE205A
:10497000FFF728FE2044C4B206200FE08418001080
:10498000F8010010FC010010EC01001004190010E7
:10499000280300102603001010030010FFF7C0FDCD
:1049A00002223F21DE20FFF70DFE2044C4B2062282
:1049B0003F21DE20FFF706FE2044C4B23046FFF759
:1049C000C7FD804642463321DE20FFF7FBFD204431
:1049D000C4B20620FFF7A4FD02223F21DE20FFF72C
:1049E000F1FD2044C4B206223F21DE20FFF7EAFD9C
:1049F0002044C4B22846FFF7ABFD8046424634212E
:104A0000DE20FFF7DFFD2044C4B20620FFF788FD5B
:104A100002223F21DE20FFF7D5FD2044C4B206224A
:104A20003F21DE20FFF7CEFD2044C4B24846FFF709
:104A30008FFD804642463521DE20FFF7C3FD20442E
:104A4000C4B20620FFF76CFD02223F21DE20FFF7F3
:104A5000B9FD2044C4B206223F21DE20FFF7B2FD9B
:104A60002044C4B220223721DE20FFF7ABFD2044D2
:104A7000C4B22046BDE8F09F1CB5FFF752FE0520EA
:104A8000FCF78EFCFFF767FEF7484079F74908709E
:104A9000F5480079F6490870F348C078F549087080
:104AA000F1488078F4490870EF484078F34908707D
:104AB000ED480078F2490870F248007800F00100F3
:104AC000F8B1EA48007848B908200090034602226D
:104AD000012101900E20FFF78CFE0FE0E8480078DE
:104AE000E6490978CDE90010E3480378E148027807
:104AF000DF480178DD480078FFF77BFE0520FCF7F2
:104B00004FFC1CBD2DE9F04104460D461646C4F38A
:104B10000E0433462A462146A620FFF77EFD0746AF
:104B20003846BDE8F0812DE9F04104460D461646B1
:104B3000D548C06D40F40050D349C865C4F30E0495
:104B400033462A462146A620FFF79DFD074608204A
:104B5000FCF726FCCC48806D40F40050CA498865BB
:104B60003846BDE8F0817CB50446002500208DF86C
:104B700000008DF801008DF802008DF80300C4F3E9
:104B80000E0404236A462146A620FFF746FD9DF841
:104B9000000000069DF8011000EB01409DF8021096
:104BA00000EB01209DF80310451828467CBD7CB51C
:104BB00005460C460026B448C06D40F40050B2498A
:104BC000C865200E8DF80000200C8DF80100200A29
:104BD0008DF80200E0B28DF8030000208DF804008B
:104BE000C5F30E0504236A462946A620FFF74BFDB0
:104BF00006460820FCF7D4FBA348806D40F4005023
:104C0000A149886530467CBDF0B5A04B0022002547
:104C100000245A261F463E70A5267E701E46B070A0
:104C20000826BE7201263E711E46F1700A26FE72EB
:104C300001267E715026BE7147271E46F771012757
:104C40003772777200261F463E73BE730F2500BF72
:104C500005E01E782644B4B25B1C561CF2B26E1EF0
:104C60009642F6DC894FBC73F0BD2DE9F04100257A
:104C70000024002700260F20854908600846834944
:104C8000026801F10F000BF09BFC00BF38E0A003AD
:104C90001030804908600026C4EB04107B490844AA
:104CA0007D49086000250AE07B48006800783044B0
:104CB00086B279480068401C774908606D1C7448CA
:104CC0000068401EA842EFD8C4EB04116F4A11449B
:104CD0008E73C4EB0410114608446F4908606C4899
:104CE0000278084601686B480068FFF71CFF05461C
:104CF0006A48007805FA00F03844C7B2601CC4B2B4
:104D0000022CC4DBBDE8F0812DE9F0470026002429
:104D10000025A0460027A14600BF0F205C4908607F
:104D200000BF69E0A00310305A490860C4EB0410CA
:104D300056490844584908605548027808460168B1
:104D400054480068FFF7DEFE8046C4EB04104F496C
:104D500008445149086000205149088000260EE0AF
:104D60004D48006800784E49098808444C4908803D
:104D700049480068401C48490860701C86B2444895
:104D80000068401EB042EBD845480078C4EB0411DF
:104D90003E4A1144897B88420DD1C4EB0410114670
:104DA000085C5A2807D1C4EB041008444078A528B1
:104DB00001D14FF00109781CC7B2B8F1000F12D031
:104DC000B9F1000F0FD036480078C4EB04112F4A18
:104DD0001144897B884203D00120A0402843C5B2FA
:104DE000601CC4B20027032F06DB0120A04028432B
:104DF000C5B2601CC4B20027022C93DBD5B1012DD3
:104E00000ED0022D02D0032D1CD114E020481F49E2
:104E1000026801F10F000BF0D3FBFFF726FF12E051
:104E20001B481A490F31026818480BF0C9FBFFF7FD
:104E30001CFF08E007E018210620FFF7E5FEFFF75A
:104E400014FF00E000BF00BF1048807A00EB800034
:104E5000400014490880144800682843124908603B
:104E60002846BDE8F0870000100300102003001062
:104E7000210300102203001023030010240300105C
:104E8000250300102803001000C009201C22001078
:104E9000300300102C0300103803001037030010FB
:104EA0003403001048000010AC000010FB48002143
:104EB0000160416081605A20F8490870A52048705F
:104EC0000020488048600881084603460ECB0C301D
:104ED0000EC070472DE9F041002500240026002770
:104EE0000C20EF4908600846EC49026801F10C000B
:104EF0000BF0ABFBEB48007800284BD100BF46E03D
:104F0000A0036030E8490860002004EB4401E34A54
:104F100002EB8101488104EB4400114601EB800063
:104F2000E2490860002515E004EB4400DB4901EB91
:104F300080004089DD4909680978084404EB440190
:104F4000D64A02EB81014881D8480068401CD74905
:104F500008606D1CD2480068801EA842E4D804EBAB
:104F60004400CE4901EB8000D0490860CC4802786B
:104F700008460168CC480068FFF7D5FD0546CC48D7
:104F8000007805FA00F03044C6B2601CC4B2022CAE
:104F9000B6DB51E0C348007801284DD1002449E038
:104FA00043F62077A00360303844BF4908600020F2
:104FB00004EB4401B94A02EB8101488104EB44004F
:104FC000114601EB8000B9490860002515E004EBAB
:104FD0004400B24901EB80004089B449096809786E
:104FE000084404EB4401AD4A02EB81014881AF481B
:104FF0000068401CAD4908606D1CA9480068801E0F
:10500000A842E4D804EB4400A44901EB8000A7497E
:105010000860A348027808460168A3480068FFF7C3
:1050200082FD0546A248007805FA00F03044C6B279
:10503000601CC4B2022CB3DB9A48007880F00100F7
:1050400098490870BDE8F0812DE9F05F0026002442
:105050000025A046A1460027A246A34600BF0C207B
:105060008F49086000BF71E04FF0000AA003603074
:105070008D49086004EB4400884901EB80008B49AE
:105080000860874802780846016887480068FFF78B
:1050900039FD814604EB4400804901EB80008349DF
:1050A000086000208349088000260EE07F480068E1
:1050B00000788049098808447E4908807B48006858
:1050C000401C7A490860701C86B275480068801ED2
:1050D000B042EBD804EB4400704901EB80004089FA
:1050E0007449098888420FD104EB44006B4911F8D8
:1050F00020005A2808D104EB440001EB80004078DE
:10510000A52801D14FF0010A781CC7B2B9F1000FF0
:1051100013D0BAF1000F10D004EB44005F4901EB4B
:105120008000408963490988884203D00120A0405B
:105130002843C5B2601CC4B20027022F06DB012041
:10514000A0402843C5B2601CC4B20027022C8BDBF0
:10515000B5B1012D0CD0022D02D0032D12D110E0DB
:105160004F484E49026801F10C000BF06EFA0AE05C
:105170004B484A490C31026848480BF066FA02E095
:1051800001E000E000BF00BF0027002476E04FF000
:10519000000A43F6207BA00360305844424908606F
:1051A00004EB4400444901EB8000404908603C485E
:1051B0000278084601683C480068FFF7A3FC814676
:1051C00004EB44003C4901EB8000384908600020B2
:1051D0003849088000260EE03448006800783549D8
:1051E000098808443349088030480068401C2F492A
:1051F0000860701C86B22A480068801EB042EBD856
:1052000004EB44002C4901EB8000408929490988BE
:1052100088420FD104EB4400274911F820005A2896
:1052200008D104EB440001EB80004078A52801D1AF
:105230004FF0010A781CC7B2B9F1000F15D0BAF1CE
:10524000000F12D004EB44001B4901EB80004089A1
:1052500018490988884205D00120A04040EA08008A
:1052600000F0FF08601CC4B20027022F06DB0120FB
:10527000A0402843C5B2601CC4B20027022C86DBC4
:10528000B8F1000F2AD0B8F1010F1FD0B8F1020F0A
:1052900014D0B8F1030F23D121E000009C090010C5
:1052A000300300103C0300102C03001038030010E2
:1052B0003703001034030010B4090010FD48FE4904
:1052C000026801F10C000BF0C0F90AE0F948FA4954
:1052D0000C310268F8480BF0B8F902E001E000E098
:1052E00000BF00BF032D06D1B8F1030F03D1FFF7B4
:1052F000DDFDFFF7EFFDF0484068F049496888425E
:1053000010D9EC48EC490268EC480BF09EF9E948EA
:10531000E9490268E9480C300BF097F90020E849A8
:10532000087002E00120E64908702846BDE8F09FB9
:105330000020E44900220A604A608A605A21E14A5A
:105340001170A521517011461368CB6053680B6131
:1053500092684A61704770B50025002400260C2031
:10536000D44908600846D749026801F10C000BF0E7
:1053700027F900BF46E0A0038030D3490860002031
:1053800004EB4401CF4A02EB8101488104EB440065
:10539000114601EB8000CD490860002515E004EBC3
:1053A0004400C84901EB80004089C8490968097870
:1053B000084404EB4401C34A02EB81014881C3481D
:1053C0000068401CC14908606D1CBA480068801E16
:1053D000A842E4D804EB4400BA4901EB8000BB4981
:1053E0000860B448027808460168B7480068FFF7CB
:1053F0009AFB0546B648007805FA00F03044C6B27C
:10540000601CC4B2022CB6DB70BD2DE9F04700264B
:1054100000240025A0460027A14600BF0C20A54976
:10542000086000BF75E0A0038030A749086004EB66
:105430004400A44901EB8000A44908609D4802781B
:1054400008460168A0480068FFF75CFB804604EB53
:1054500044009C4901EB80009C49086000209D4964
:10546000088000260EE0994800680078994909886C
:1054700008449849088095480068401C9349086092
:10548000701C86B28B480068801EB042EBD804EBDB
:1054900044008C4901EB800040898E49098888428C
:1054A0000FD104EB4400874911F820005A2808D195
:1054B00004EB440001EB80004078A52801D14FF0B7
:1054C0000109781CC7B2B8F1000F16D0B9F1000F6E
:1054D00013D004EB44007B4901EB800040897D49F7
:1054E0000988884203D00120A0402843C5B2601C2F
:1054F000C4B2002701207849C871022F09DB0120BE
:10550000A0402843C5B2601CC4B2002702207249E3
:10551000C871022C87DBD5B1012D0ED0022D02D02F
:10552000032D1AD114E063486649026801F10C00AA
:105530000BF046F8FFF70FFF10E05E4861490C31B1
:10554000026860480BF03CF8FFF705FF06E005E055
:10555000FFF7EEFEFFF7FFFE00E000BF00BF5F4871
:10556000006840EA85005D4908602846BDE8F0878C
:1055700010B500245A205A490870A520487000BF71
:1055800005222146641C5648801C425401222146B3
:10559000641C425408222146641C425405222146C0
:1055A000641C425401222146641C425408222146B4
:1055B000641C4254002401222146641CC01D425434
:1055C0002146641C42542146641C42540222214656
:1055D000641C42542146641C42542146641C4254BB
:1055E000002412222146641CC01D4254052221467B
:1055F000641C425401222146641C42540822214664
:10560000641C42542146641C42542146641C42548A
:105610001C2233490C300AF0D3FF10BD70B50025B1
:10562000002400261C202349086008462C490268F3
:1056300001F11C000AF0C4FF00BF5FE0A003C0300E
:10564000214908600020C4EBC401254A02EB810116
:105650004883C4EBC400114601EB80001B4908607D
:10566000002515E0C4EBC4001D4901EB8000408B10
:105670001649096809780844C4EBC401184A02EBCA
:105680008101488311480068401C104908606D1C66
:1056900008480068801EA842E4D8C4EBC400104942
:1056A00001EB800009490860024802780846016859
:1056B000054817E030030010B40900109C090010E1
:1056C0003C0300104C0900102C030010380300109C
:1056D0003703001034030010EC000010AC00001081
:1056E000640900100068FFF71EFA05465848007864
:1056F00005FA00F03044C6B2601CC4B2022C9DDB37
:1057000070BD2DE9F047002600240025A0460027A3
:10571000A14600BF1C204F49086000BF6FE0A003F6
:10572000C0304D490860C4EBC4004C4901EB800017
:105730004B490860474802780846016846480068B7
:10574000FFF7E0F98046C4EBC400444901EB800058
:105750004349086000204349088000260EE0404885
:10576000006800783F49098808443E4908803C4861
:105770000068401C3A490860701C86B235480068D1
:10578000801EB042EBD8C4EBC400344901EB80006A
:10579000408B3449098888420FD1C4EBC4002F499B
:1057A00011F820005A2808D1C4EBC40001EB800096
:1057B0004078A52801D14FF00109781CC7B2B8F193
:1057C000000F13D0B9F1000F10D0C4EBC40023496F
:1057D00001EB8000408B23490988884203D00120D7
:1057E000A0402843C5B2601CC4B20027022F06DBCC
:1057F0000120A0402843C5B2601CC4B20027022C7F
:105800008DDBD5B1012D0ED0022D02D0032D1AD182
:1058100014E0104811491C31026810480AF0D0FE0B
:10582000FFF7FCFE10E00B480C49026801F11C0078
:105830000AF0C6FEFFF7F2FE06E005E0FFF798FE6D
:10584000FFF7ECFE00E000BF00BF2846BDE8F08790
:1058500037030010300300102C03001064090010FF
:105860003803001034030010FD490868096801433B
:10587000FB4A1160704710B50246FA480068C0F351
:105880000160F94B18601846006830B101280AD051
:1058900002280DD0032811D000BFF448006880080A
:1058A000F34B186010E0F1480068F14B18600BE012
:1058B000EE4800684008EE4B186005E0EB480068D1
:1058C000C008EB4B186000BF00BF0020E94B186018
:1058D000E448E438006840F04000E74BC3F8C400F7
:1058E0000220DF4B58600020D86003205861E04858
:1058F0000068B0FBF1F0DE4B186018460068D84B2A
:1059000098610020D86118625862186458649864DD
:10591000032018651846006D40F03F001865092007
:10592000012383404409A40004F1E024C4F80031B9
:1059300000BF012010BDD149B1FBF0F1CC4A11608C
:1059400011460968C64A9161032111650921516018
:105950007047062877D2DFE800F00316293C4F6233
:10596000C34A12684A436423B2FBF3F2BC4BDA61C8
:105970001A46126D42F002021A651A46D26C42F4BF
:105980000072DA6460E0BA4A12684A436423B2FBE8
:10599000F3F2B34B1A621A46126D42F004021A6512
:1059A0001A46D26C42F48062DA644DE0B04A126862
:1059B0004A436423B2FBF3F2A94B5A621A46126DB2
:1059C00042F008021A651A46D26C42F40062DA64A8
:1059D0003AE0A74A12684A436423B2FBF3F2A04BB1
:1059E0001A641A46126D42F010021A651A46D26CF9
:1059F00042F48052DA6427E09D4A12684A436423E5
:105A0000B2FBF3F2964B5A641A46126D42F0200232
:105A10001A651A46D26C42F40052DA6414E0944AD1
:105A200012684A436423B2FBF3F28D4B9A641A4620
:105A3000126D42F001021A651A46D26C42F0010260
:105A4000DA6401E0FFE700BF00BF70470C287DD299
:105A5000DFE800F00625446384A3C2E1FDFCFBFA05
:105A6000874AD26822F03002854BDA601A46126902
:105A700042F001021A617E4A12684A434FF47A7377
:105A8000B2FBF3F2764BDA611A46126D42F0020273
:105A90001A651A46D26C42F40072DA6459E1784A07
:105AA000126922F00302764B1A611A46D26842F05C
:105AB0002002DA606E4A12684A434FF47A73B2FBEE
:105AC000F3F2674BDA611A46126D42F002021A6570
:105AD0001A46D26C42F40072DA643AE1684AD2683B
